:100000009BC00000B4C00000B2C00000B0C000003F
:10001000AEC00000ACC00000AAC00000A8C0000034
:10002000A6C00000A4C00000A2C0000087C4000059
:100030009EC000009CC000009AC0000098C0000054
:1000400096C0000094C0000092C0000090C0000064
:100050008EC000008CC000008AC000001BC10000E0
:1000600086C0000084C0000082C0000080C0000084
:100070007EC00000140348004F00520049005000A9
:10008000410044002000530000001C0348004F00C2
:1000900052004900200043004F002E002C004C006D
:1000A000540044002E000000040309040902290042
:1000B000010100807D090400000203000000092105
:1000C0001101000122500007050203400005070549
:1000D000810340000512010002000000400D0FC125
:1000E0000072050102000105010905A101150025A5
:1000F00001350045017501950E05091901290E818B
:10010000029502810105012507463B017504950111
:1001100065140939814265009501810126FF004679
:10012000FF0009300931093209357508950481024B
:10013000750895018101C00011241FBECFEFD2E0E8
:10014000DEBFCDBF11E0A0E0B1E0EAEBFDE002C010
:1001500005900D92A230B107D9F721E0A2E0B1E0FD
:1001600001C01D92A932B207E1F7A4D124C648CF3D
:100170009C011092C80086E08093CA001092CB00C8
:10018000B90137FF02C06F5F7F4F75956795072EE6
:10019000000C880B990B605C7D4B804F9F4F032EAA
:1001A000000C440B550BE5D5215031093093CD009F
:1001B0002093CC0088E18093C900539A5A9A0895FD
:1001C00084B7877F84BF0FB6F894A89580916000AC
:1001D000886180936000109260000FBE0895E9EC82
:1001E000F0E080818F7780830895E9ECF0E08081F2
:1001F0008068808308959091C80095FFFCCF80931C
:10020000CE0008958091C80087FFFCCF8091CE007A
:100210000895292F33272330310521F158F4213057
:10022000310599F022303105C1F090E080E030E0F6
:1002300020E00FC02132310541F122323105A9F70A
:1002400080E590E027EE30E004C082E190E025ED0B
:1002500030E0FA0131832083089589E290E02CEAAE
:1002600030E0F7CF99278130910561F028F00297AF
:10027000E1F6E4E7F0E002C0E8EAF0E0849190E023
:100280009F01E7CFEAE8F0E0F9CF89E090E02EEBBC
:1002900030E0DFCF1F920F920FB60F9211242F93F1
:1002A0003F934F935F936F937F938F939F93AF93FE
:1002B000BF93CF93EF93FF93A5DFC82F80910001E9
:1002C000813041F5C33331F482E0809300018CEC3E
:1002D00092DF03C083E080930001809100018330AE
:1002E00039F4CF3F29F481E0809300018FEF83DF61
:1002F000FF91EF91CF91BF91AF919F918F917F919E
:100300006F915F914F913F912F910F900FBE0F9082
:100310001F901895823031F4CC3CE1F61092000128
:1003200083E3D6CF8111D9CFE091130180911201DF
:10033000E83098F491E09E0F90931301F0E0E65FAF
:10034000FE4FC0838C2798E027E0880F08F48227AF
:100350009A95D9F780931201C0CFC81769F082E946
:10036000CF3F21F481E0809300018FEF44DF1092B2
:10037000130110921201B1CF80910A0190910B01EB
:1003800098278927982790931501809314018091CD
:100390000C018093160180910D01809317018091CB
:1003A0000E018093180180910F01809319018091B3
:1003B000100180931A018091110180931B01D7CF06
:1003C000FFDE80E890E00FB6F89480936100909390
:1003D00061000FBE80E09BE4CBDEA1C208950895CA
:1003E00042E360EC82E0E0D142E361EC81E0DCC119
:1003F0000895CF93DF93CDB7DEB728970FB6F89463
:10040000DEBF0FBECDBF80912001843009F03FC018
:1004100082E08093E9008091E80082FF12C0809121
:10042000E80085FF09C050E040E067E070E0CE01E1
:100430000196B3D08111F7CF8091E8008B7780933C
:10044000E80081E08093E9008091E80080FF1FC010
:10045000C6DE80910001811123C088E0E4E1F1E073
:10046000DE01119601900D928A95E1F780E9C3DED5
:10047000BCDE50E040E068E070E0CE0101963FD085
:100480008111F7CF8091E8008E778093E80028965D
:100490000FB6F894DEBF0FBECDBFDF91CF910895A8
:1004A00088E0E2E0F1E0DE01119601900D928A957C
:1004B000E1F7DECF88E0E2E0F1E0DF01982F1D9266
:1004C0009A95E9F790E8909305019093060190932F
:1004D00007019093080180930401A4E1B1E0019029
:1004E0000D928A95E1F7EAE0F1E08AE0DF011D92E2
:1004F0008A95E9F765DF78947CDF20D4FDCFAF9251
:10050000BF92CF92DF92FF920F931F93CF93DF930F
:100510006C01EB018A019BD1F82E811124C00115D9
:10052000110539F0F80180819181C81BD90BC80EE3
:10053000D91EB12CA12C2097B1F08091E80085FD47
:1005400022C08091E8008E778093E800F7D30115F0
:100550001105A1F0F80180819181A80EB91EB18228
:10056000A08285E0F82E8F2DDF91CF911F910F9102
:10057000FF90DF90CF90BF90AF90089568D188230F
:10058000D1F2F82EF0CFF60181916F018093F10046
:100590002197FFEFAF1ABF0ACECFAF92BF92CF9293
:1005A000DF92FF920F931F93CF93DF936C01EB01C8
:1005B0008A014DD1F82E811124C00115110539F0A1
:1005C000F80180819181C81BD90BC80ED91EB12CAE
:1005D000A12C2097B1F08091E80085FD22C0809188
:1005E000E8008B778093E800A9D301151105A1F0ED
:1005F000F80180819181A80EB91EB182A08285E0A8
:10060000F82E8F2DDF91CF911F910F91FF90DF90EA
:10061000CF90BF90AF9008951AD18823D1F2F82ED1
:10062000F0CF8091F100F60181936F012197FFEFE8
:10063000AF1ABF0ACECFFC0180912701909128010B
:1006400086179707A0F06115710529F49091E800CD
:100650009E779093E80090E06115710551F4911137
:1006600008C08091E80082FF32C080E00895BC019C
:10067000F2CF809120018823B1F18530B1F18091D2
:10068000E80083FD2EC08091E80082FDEACF8091D2
:10069000E80080FFE1CF2091F20030E061157105A4
:1006A00019F02034310558F091E02034310509F07B
:1006B00090E02091E8002E772093E800CDCF819143
:1006C0008093F100615071092F5F3F4FE7CF809118
:1006D0002001882341F0853041F08091E80083FFBC
:1006E000C0CF81E0089582E0089583E00895FC0181
:1006F000809127019091280186179707A0F0611536
:10070000710529F48091E8008E778093E80090E0ED
:100710006115710551F4911108C08091E80082FFC4
:1007200033C080E00895BC01F2CF8091200188237E
:10073000B9F18530B9F18091E80083FD2FC0809137
:10074000E80082FDEACF8091E80080FFE1CF2091B0
:10075000F20030E06115710519F02034310558F0D0
:1007600091E02034310509F090E08091E8008E7727
:100770008093E800CDCF84918093F1003196615051
:1007800071092F5F3F4FE6CF80912001882341F010
:10079000853041F08091E80083FFBFCF81E008956C
:1007A00082E0089583E00895982F953028F08F70A7
:1007B0008093E90081E008959093E900242F762F3B
:1007C00050E0981731F07091EC002091ED005091BD
:1007D000F00021FD02C09F5FE8CF3091EB003E7F2B
:1007E0003093EB003091ED003D7F3093ED00309180
:1007F000EB0031603093EB007093EC002093ED0040
:100800005093F0002091EE0027FDE5CF80E00895A1
:100810008091210187FF13C08091E80082FF06C00C
:100820008091E8008B778093E80004C080912001DC
:100830008111F2CF0895809120018823D9F380910E
:10084000E80080FFF8CF8091E8008E77ECCF209110
:10085000E4003091E50085E69091EC0090FF06C041
:100860009091E80090FF06C080E008959091E80024
:1008700092FDFACF90912001992391F0953091F05B
:100880009091EB0095FD10C04091E4005091E5007F
:100890002417350709F381509A01F1F684E0089591
:1008A00082E0089583E0089581E0089541D043D027
:1008B0008091D8008F778093D8008091D80080688D
:1008C0008093D8008091D8008F7D8093D80084E0F9
:1008D00089BD86E089BD09B400FEFDCF10922001DC
:1008E00010921C0110921E0110921D0142E360E063
:1008F00080E05ADF8091E1008E7F8093E10080915B
:10090000E20081608093E2008091E2008860809341
:10091000E2008091E0008E7F8093E0000895E3E69E
:10092000F0E080818E7F808381E080931F01BECFC5
:100930001092E20008951092E10008951F920F9224
:100940000FB60F9211242F933F934F935F936F93A2
:100950007F938F939F93AF93BF93EF93FF93809178
:10096000E10082FF0AC08091E20082FF06C0809110
:10097000E1008B7F8093E100E0D18091E10080FF76
:1009800017C08091E20080FF13C08091E2008E7F4B
:100990008093E2008091E20080618093E200809188
:1009A000D80080628093D80019BC1092200117DD16
:1009B0008091E10084FF27C08091E20084FF23C082
:1009C00084E089BD86E089BD09B400FEFDCF809139
:1009D000D8008F7D8093D8008091E1008F7E809336
:1009E000E1008091E2008F7E8093E2008091E2003E
:1009F00081608093E20080911C018823D9F184E01A
:100A000080932001EBDC8091E10083FF22C0809184
:100A1000E20083FF1EC08091E100877F8093E100A8
:100A200082E08093200110921C018091E1008E7F72
:100A30008093E1008091E2008E7F8093E2008091BC
:100A4000E20080618093E20042E360E080E0ACDE9F
:100A500074D1FF91EF91BF91AF919F918F917F9151
:100A60006F915F914F913F912F910F900FBE0F901B
:100A70001F9018958091E30087FD02C081E0C0CFF0
:100A800083E0BECF1F93CF93DF93CDB7DEB7AA9796
:100A90000FB6F894DEBF0FBECDBFE1E2F1E080916A
:100AA000F100819321E0E932F207C9F7A1DC8091DE
:100AB000E80083FF10C080912101909122019530C0
:100AC00009F4D8C000F5913009F48BC008F461C076
:100AD000933009F486C08091E80083FF0AC08091BA
:100AE000E800877F8093E8008091EB00806280932C
:100AF000EB00AA960FB6F894DEBF0FBECDBFDF9114
:100B0000CF911F910895983009F4ECC0993009F401
:100B1000F6C0963001F780588230E8F680912301C4
:100B2000909124018C3D23E0920709F0C6C083E038
:100B30008A838AE289834FB7F894DE01139620E016
:100B40003EE051E2E32FF0E050935700E49120FFA4
:100B500003C0E295EF703F5FEF708E2F90E0EA30B8
:100B600008F4A9C0C7968D939D932F5F243151F748
:100B70004FBF8091E800877F8093E8006AE270E0D1
:100B8000CE01019658DD8091E8008B778093E800D4
:100B9000A2CF803899F0823809F09DCF809125014D
:100BA0008F70853008F097CF8093E9008091EB003B
:100BB00085FB882780F91092E90006C080911D010D
:100BC00090911E01911182609091E800977F90931F
:100BD000E8008093F1001092F1008091E8008E7798
:100BE00032C0282F2D7F09F076CF8823E9F082309C
:100BF00009F071CF80912301811120C080912501DE
:100C00008F702FEF280F243008F065CF8093E90014
:100C10002091EB0020FF12C09330C9F48091EB00CB
:100C200080628093EB000AC080912301813009F03B
:100C300052CF933009F080E080931E011092E900BA
:100C40008091E800877F8093E800E2DD44CF9091B7
:100C5000EB0090619093EB0021E030E001C0220FA7
:100C60008A95EAF72093EA001092EA008091EB005F
:100C70008860D7CF81112FCF109123011F778091EA
:100C8000E3008078812B8093E3008091E800877FE8
:100C90008093E800BDDD8091E80080FFFCCF80916B
:100CA000E30080688093E30083E0111101C082E0DB
:100CB0008093200110CFC09656CF6091250170918E
:100CC0002601AE014F5F5F4FA4DABC01892B09F406
:100CD00002CF9091E800977F9093E80089819A81F4
:100CE00006DD51CF803809F0F6CE8091E800877F8D
:100CF0008093E80080911C018093F1006ECF8111F8
:100D0000EACE90912301923008F0E5CE8091E80080
:100D1000877F8093E80090931C017ADD80911C010D
:100D2000882329F084E0809320015ADBD4CE80917F
:100D3000E30087FDF7CF81E0F6CF0895CF93809150
:100D40002001882391F0C091E900CF708091EC00E0
:100D500080FD0DC080E0C82B1092E9008091E80072
:100D600083FD90DECF70C093E900CF91089580E8B5
:100D7000F2CFA1E21A2EAA1BBB1BFD010DC0AA1FB8
:100D8000BB1FEE1FFF1FA217B307E407F50720F0F4
:100D9000A21BB30BE40BF50B661F771F881F991F6F
:100DA0001A9469F760957095809590959B01AC01B8
:0A0DB000BD01CF010895F894FFCFB4
:020DBA00030034
:00000001FF
